{
    "contractName": "MarketAPI",
    "abi": [
        {
            "inputs": [
                {
                    "internalType": "string",
                    "name": "_filename",
                    "type": "string"
                },
                {
                    "internalType": "string",
                    "name": "_cid",
                    "type": "string"
                }
            ],
            "name": "add_record",
            "outputs": [],
            "stateMutability": "nonpayable",
            "type": "function"
        },
        {
            "inputs": [
                {
                    "internalType": "address",
                    "name": "",
                    "type": "address"
                },
                {
                    "internalType": "uint256",
                    "name": "",
                    "type": "uint256"
                }
            ],
            "name": "cidarr",
            "outputs": [
                {
                    "internalType": "string",
                    "name": "",
                    "type": "string"
                }
            ],
            "stateMutability": "view",
            "type": "function"
        },
        {
            "inputs": [
                {
                    "internalType": "address",
                    "name": "",
                    "type": "address"
                },
                {
                    "internalType": "uint256",
                    "name": "",
                    "type": "uint256"
                }
            ],
            "name": "filenamearr",
            "outputs": [
                {
                    "internalType": "string",
                    "name": "",
                    "type": "string"
                }
            ],
            "stateMutability": "view",
            "type": "function"
        },
        {
            "inputs": [
                {
                    "internalType": "uint256",
                    "name": "index",
                    "type": "uint256"
                }
            ],
            "name": "get_cid",
            "outputs": [
                {
                    "internalType": "string",
                    "name": "",
                    "type": "string"
                }
            ],
            "stateMutability": "view",
            "type": "function"
        },
        {
            "inputs": [
                {
                    "internalType": "uint256",
                    "name": "index",
                    "type": "uint256"
                }
            ],
            "name": "get_filename",
            "outputs": [
                {
                    "internalType": "string",
                    "name": "",
                    "type": "string"
                }
            ],
            "stateMutability": "view",
            "type": "function"
        },
        {
            "inputs": [],
            "name": "return_size",
            "outputs": [
                {
                    "internalType": "uint256",
                    "name": "",
                    "type": "uint256"
                }
            ],
            "stateMutability": "view",
            "type": "function"
        }
    ],
    "bytecode": "608060405234801561001057600080fd5b506107bb806100206000396000f3fe608060405234801561001057600080fd5b50600436106100625760003560e01c80630c1cdfa0146100675780631c2126f5146100905780634dcd9bb3146100a65780638e39e57c146100bb5780639a0470d1146100ce578063a25cac9b146100e1575b600080fd5b61007a6100753660046106b0565b6100f4565b60405161008791906106c9565b60405180910390f35b6100986101fa565b604051908152602001610087565b6100b96100b436600461064c565b6102da565b005b61007a6100c93660046106b0565b610343565b61007a6100dc366004610614565b610419565b61007a6100ef366004610614565b6104d2565b336000908152600160209081526040808320805482518185028101850190935280835260609493849084015b828210156101cc57838290600052602060002001805461013f9061071e565b80601f016020809104026020016040519081016040528092919081815260200182805461016b9061071e565b80156101b85780601f1061018d576101008083540402835291602001916101b8565b820191906000526020600020905b81548152906001019060200180831161019b57829003601f168201915b505050505081526020019060010190610120565b50505050905060008184815181106101e6576101e6610759565b602002602001015190508092505050919050565b3360009081526020818152604080832080548251818502810185019093528083528493849084015b828210156102ce5783829060005260206000200180546102419061071e565b80601f016020809104026020016040519081016040528092919081815260200182805461026d9061071e565b80156102ba5780601f1061028f576101008083540402835291602001916102ba565b820191906000526020600020905b81548152906001019060200180831161029d57829003601f168201915b505050505081526020019060010190610222565b50509151949350505050565b336000908152602081815260408220805460018101825590835291819020845161030b9391909101918501906104ee565b50336000908152600160208181526040832080549283018155835291829020835161033e939190920191908401906104ee565b505050565b33600090815260208181526040808320805482518185028101850190935280835260609493849084015b828210156101cc57838290600052602060002001805461038c9061071e565b80601f01602080910402602001604051908101604052809291908181526020018280546103b89061071e565b80156104055780601f106103da57610100808354040283529160200191610405565b820191906000526020600020905b8154815290600101906020018083116103e857829003601f168201915b50505050508152602001906001019061036d565b6001602052816000526040600020818154811061043557600080fd5b906000526020600020016000915091505080546104519061071e565b80601f016020809104026020016040519081016040528092919081815260200182805461047d9061071e565b80156104ca5780601f1061049f576101008083540402835291602001916104ca565b820191906000526020600020905b8154815290600101906020018083116104ad57829003601f168201915b505050505081565b6000602052816000526040600020818154811061043557600080fd5b8280546104fa9061071e565b90600052602060002090601f01602090048101928261051c5760008555610562565b82601f1061053557805160ff1916838001178555610562565b82800160010185558215610562579182015b82811115610562578251825591602001919060010190610547565b5061056e929150610572565b5090565b5b8082111561056e5760008155600101610573565b600082601f83011261059857600080fd5b813567ffffffffffffffff808211156105b3576105b361076f565b604051601f8301601f19908116603f011681019082821181831017156105db576105db61076f565b816040528381528660208588010111156105f457600080fd5b836020870160208301376000602085830101528094505050505092915050565b6000806040838503121561062757600080fd5b82356001600160a01b038116811461063e57600080fd5b946020939093013593505050565b6000806040838503121561065f57600080fd5b823567ffffffffffffffff8082111561067757600080fd5b61068386838701610587565b9350602085013591508082111561069957600080fd5b506106a685828601610587565b9150509250929050565b6000602082840312156106c257600080fd5b5035919050565b600060208083528351808285015260005b818110156106f6578581018301518582016040015282016106da565b81811115610708576000604083870101525b50601f01601f1916929092016040019392505050565b600181811c9082168061073257607f821691505b6020821081141561075357634e487b7160e01b600052602260045260246000fd5b50919050565b634e487b7160e01b600052603260045260246000fd5b634e487b7160e01b600052604160045260246000fdfea2646970667358221220963b088b9fd418b6deb1d77f691c2c4dd6d49bc8ca571bb55b4869202f54e41c64736f6c63430008070033",
    "sourcePath": "d:/GitHub/Inter-IIT-Project_files/Hardhat/contracts/filecoinMockAPIs/MarketAPI.sol",
    "compiler": {
        "name": "solc",
        "version": "0.8.7+commit.e28d00a7"
    },
    "functionHashes": {
        "add_record(string,string)": "4dcd9bb3",
        "cidarr(address,uint256)": "9a0470d1",
        "filenamearr(address,uint256)": "a25cac9b",
        "get_cid(uint256)": "0c1cdfa0",
        "get_filename(uint256)": "8e39e57c",
        "return_size()": "1c2126f5"
    },
    "gasEstimates": {
        "creation": {
            "codeDepositCost": "395800",
            "executionCost": "430",
            "totalCost": "396230"
        },
        "external": {
            "add_record(string,string)": "infinite",
            "cidarr(address,uint256)": "infinite",
            "filenamearr(address,uint256)": "infinite",
            "get_cid(uint256)": "infinite",
            "get_filename(uint256)": "infinite",
            "return_size()": "infinite"
        }
    }
}