{
  "address": "0x9e294e5Bde166200a968E67d0a9eEd975f2555AE",
  "abi": [
    {
      "inputs": [
        {
          "internalType": "string",
          "name": "_filename",
          "type": "string"
        },
        {
          "internalType": "string",
          "name": "_cid",
          "type": "string"
        },
        {
          "internalType": "address",
          "name": "_address",
          "type": "address"
        }
      ],
      "name": "add_record",
      "outputs": [],
      "stateMutability": "nonpayable",
      "type": "function"
    },
    {
      "inputs": [
        {
          "internalType": "address",
          "name": "",
          "type": "address"
        },
        {
          "internalType": "uint256",
          "name": "",
          "type": "uint256"
        }
      ],
      "name": "cidarr",
      "outputs": [
        {
          "internalType": "string",
          "name": "",
          "type": "string"
        }
      ],
      "stateMutability": "view",
      "type": "function"
    },
    {
      "inputs": [
        {
          "internalType": "address",
          "name": "",
          "type": "address"
        },
        {
          "internalType": "uint256",
          "name": "",
          "type": "uint256"
        }
      ],
      "name": "filenamearr",
      "outputs": [
        {
          "internalType": "string",
          "name": "",
          "type": "string"
        }
      ],
      "stateMutability": "view",
      "type": "function"
    },
    {
      "inputs": [
        {
          "internalType": "uint256",
          "name": "index",
          "type": "uint256"
        }
      ],
      "name": "get_cid",
      "outputs": [
        {
          "internalType": "string",
          "name": "",
          "type": "string"
        }
      ],
      "stateMutability": "view",
      "type": "function"
    },
    {
      "inputs": [
        {
          "internalType": "uint256",
          "name": "index",
          "type": "uint256"
        }
      ],
      "name": "get_filename",
      "outputs": [
        {
          "internalType": "string",
          "name": "",
          "type": "string"
        }
      ],
      "stateMutability": "view",
      "type": "function"
    },
    {
      "inputs": [],
      "name": "return_size",
      "outputs": [
        {
          "internalType": "uint256",
          "name": "",
          "type": "uint256"
        }
      ],
      "stateMutability": "view",
      "type": "function"
    }
  ],
  "transactionHash": "0xf63e1b3fa4e83a57e74cb2a1ebd50b8539db4afe0ac0ef7e12192755caed2f94",
  "args": [],
  "numDeployments": 1,
  "solcInputHash": "26ed5e494200572abb5fe72ef81ad585",
  "bytecode": "0x608060405234801561001057600080fd5b50610e4b806100206000396000f3fe608060405234801561001057600080fd5b50600436106100625760003560e01c8063025f6579146100675780630c1cdfa0146100835780631c2126f5146100b35780638e39e57c146100d15780639a0470d114610101578063a25cac9b14610131575b600080fd5b610081600480360381019061007c919061090f565b610161565b005b61009d600480360381019061009891906109d0565b610249565b6040516100aa9190610a7c565b60405180910390f35b6100bb610387565b6040516100c89190610aad565b60405180910390f35b6100eb60048036038101906100e691906109d0565b6104a8565b6040516100f89190610a7c565b60405180910390f35b61011b60048036038101906101169190610ac8565b6105e5565b6040516101289190610a7c565b60405180910390f35b61014b60048036038101906101469190610ac8565b61069e565b6040516101589190610a7c565b60405180910390f35b6000808273ffffffffffffffffffffffffffffffffffffffff1673ffffffffffffffffffffffffffffffffffffffff168152602001908152602001600020839080600181540180825580915050600190039060005260206000200160009091909190915090816101d19190610d14565b50600160008273ffffffffffffffffffffffffffffffffffffffff1673ffffffffffffffffffffffffffffffffffffffff168152602001908152602001600020829080600181540180825580915050600190039060005260206000200160009091909190915090816102439190610d14565b50505050565b60606000600160003373ffffffffffffffffffffffffffffffffffffffff1673ffffffffffffffffffffffffffffffffffffffff168152602001908152602001600020805480602002602001604051908101604052809291908181526020016000905b828210156103585783829060005260206000200180546102cb90610b37565b80601f01602080910402602001604051908101604052809291908181526020018280546102f790610b37565b80156103445780601f1061031957610100808354040283529160200191610344565b820191906000526020600020905b81548152906001019060200180831161032757829003601f168201915b5050505050815260200190600101906102ac565b505050509050600081848151811061037357610372610de6565b5b602002602001015190508092505050919050565b6000806000803373ffffffffffffffffffffffffffffffffffffffff1673ffffffffffffffffffffffffffffffffffffffff168152602001908152602001600020805480602002602001604051908101604052809291908181526020016000905b8282101561049457838290600052602060002001805461040790610b37565b80601f016020809104026020016040519081016040528092919081815260200182805461043390610b37565b80156104805780601f1061045557610100808354040283529160200191610480565b820191906000526020600020905b81548152906001019060200180831161046357829003601f168201915b5050505050815260200190600101906103e8565b505050509050600081519050809250505090565b606060008060003373ffffffffffffffffffffffffffffffffffffffff1673ffffffffffffffffffffffffffffffffffffffff168152602001908152602001600020805480602002602001604051908101604052809291908181526020016000905b828210156105b657838290600052602060002001805461052990610b37565b80601f016020809104026020016040519081016040528092919081815260200182805461055590610b37565b80156105a25780601f10610577576101008083540402835291602001916105a2565b820191906000526020600020905b81548152906001019060200180831161058557829003601f168201915b50505050508152602001906001019061050a565b50505050905060008184815181106105d1576105d0610de6565b5b602002602001015190508092505050919050565b6001602052816000526040600020818154811061060157600080fd5b9060005260206000200160009150915050805461061d90610b37565b80601f016020809104026020016040519081016040528092919081815260200182805461064990610b37565b80156106965780601f1061066b57610100808354040283529160200191610696565b820191906000526020600020905b81548152906001019060200180831161067957829003601f168201915b505050505081565b600060205281600052604060002081815481106106ba57600080fd5b906000526020600020016000915091505080546106d690610b37565b80601f016020809104026020016040519081016040528092919081815260200182805461070290610b37565b801561074f5780601f106107245761010080835404028352916020019161074f565b820191906000526020600020905b81548152906001019060200180831161073257829003601f168201915b505050505081565b6000604051905090565b600080fd5b600080fd5b600080fd5b600080fd5b6000601f19601f8301169050919050565b7f4e487b7100000000000000000000000000000000000000000000000000000000600052604160045260246000fd5b6107be82610775565b810181811067ffffffffffffffff821117156107dd576107dc610786565b5b80604052505050565b60006107f0610757565b90506107fc82826107b5565b919050565b600067ffffffffffffffff82111561081c5761081b610786565b5b61082582610775565b9050602081019050919050565b82818337600083830152505050565b600061085461084f84610801565b6107e6565b9050828152602081018484840111156108705761086f610770565b5b61087b848285610832565b509392505050565b600082601f8301126108985761089761076b565b5b81356108a8848260208601610841565b91505092915050565b600073ffffffffffffffffffffffffffffffffffffffff82169050919050565b60006108dc826108b1565b9050919050565b6108ec816108d1565b81146108f757600080fd5b50565b600081359050610909816108e3565b92915050565b60008060006060848603121561092857610927610761565b5b600084013567ffffffffffffffff81111561094657610945610766565b5b61095286828701610883565b935050602084013567ffffffffffffffff81111561097357610972610766565b5b61097f86828701610883565b9250506040610990868287016108fa565b9150509250925092565b6000819050919050565b6109ad8161099a565b81146109b857600080fd5b50565b6000813590506109ca816109a4565b92915050565b6000602082840312156109e6576109e5610761565b5b60006109f4848285016109bb565b91505092915050565b600081519050919050565b600082825260208201905092915050565b60005b83811015610a37578082015181840152602081019050610a1c565b60008484015250505050565b6000610a4e826109fd565b610a588185610a08565b9350610a68818560208601610a19565b610a7181610775565b840191505092915050565b60006020820190508181036000830152610a968184610a43565b905092915050565b610aa78161099a565b82525050565b6000602082019050610ac26000830184610a9e565b92915050565b60008060408385031215610adf57610ade610761565b5b6000610aed858286016108fa565b9250506020610afe858286016109bb565b9150509250929050565b7f4e487b7100000000000000000000000000000000000000000000000000000000600052602260045260246000fd5b60006002820490506001821680610b4f57607f821691505b602082108103610b6257610b61610b08565b5b50919050565b60008190508160005260206000209050919050565b60006020601f8301049050919050565b600082821b905092915050565b600060088302610bca7fffffffffffffffffffffffffffffffffffffffffffffffffffffffffffffffff82610b8d565b610bd48683610b8d565b95508019841693508086168417925050509392505050565b6000819050919050565b6000610c11610c0c610c078461099a565b610bec565b61099a565b9050919050565b6000819050919050565b610c2b83610bf6565b610c3f610c3782610c18565b848454610b9a565b825550505050565b600090565b610c54610c47565b610c5f818484610c22565b505050565b5b81811015610c8357610c78600082610c4c565b600181019050610c65565b5050565b601f821115610cc857610c9981610b68565b610ca284610b7d565b81016020851015610cb1578190505b610cc5610cbd85610b7d565b830182610c64565b50505b505050565b600082821c905092915050565b6000610ceb60001984600802610ccd565b1980831691505092915050565b6000610d048383610cda565b9150826002028217905092915050565b610d1d826109fd565b67ffffffffffffffff811115610d3657610d35610786565b5b610d408254610b37565b610d4b828285610c87565b600060209050601f831160018114610d7e5760008415610d6c578287015190505b610d768582610cf8565b865550610dde565b601f198416610d8c86610b68565b60005b82811015610db457848901518255600182019150602085019450602081019050610d8f565b86831015610dd15784890151610dcd601f891682610cda565b8355505b6001600288020188555050505b505050505050565b7f4e487b7100000000000000000000000000000000000000000000000000000000600052603260045260246000fdfea264697066735822122021398523da3644c3fef256431276c276a70496cb289f14e5ef4d049b8ed9698864736f6c63430008110033",
  "devdoc": {
    "kind": "dev",
    "methods": {},
    "version": 1
  },
  "userdoc": {
    "kind": "user",
    "methods": {},
    "version": 1
  },
  "storageLayout": {
    "storage": [
      {
        "astId": 6,
        "contract": "contracts/filecoinMockAPIs/MarketAPI.sol:MarketAPI",
        "label": "filenamearr",
        "offset": 0,
        "slot": "0",
        "type": "t_mapping(t_address,t_array(t_string_storage)dyn_storage)"
      },
      {
        "astId": 11,
        "contract": "contracts/filecoinMockAPIs/MarketAPI.sol:MarketAPI",
        "label": "cidarr",
        "offset": 0,
        "slot": "1",
        "type": "t_mapping(t_address,t_array(t_string_storage)dyn_storage)"
      }
    ],
    "types": {
      "t_address": {
        "encoding": "inplace",
        "label": "address",
        "numberOfBytes": "20"
      },
      "t_array(t_string_storage)dyn_storage": {
        "base": "t_string_storage",
        "encoding": "dynamic_array",
        "label": "string[]",
        "numberOfBytes": "32"
      },
      "t_mapping(t_address,t_array(t_string_storage)dyn_storage)": {
        "encoding": "mapping",
        "key": "t_address",
        "label": "mapping(address => string[])",
        "numberOfBytes": "32",
        "value": "t_array(t_string_storage)dyn_storage"
      },
      "t_string_storage": {
        "encoding": "bytes",
        "label": "string",
        "numberOfBytes": "32"
      }
    }
  }
}